{
  "_format": "hh-sol-artifact-1",
  "contractName": "PakoNFT",
  "sourceName": "contracts/PakoNFT.sol",
  "abi": [
    {
      "inputs": [
        {
          "internalType": "string",
          "name": "uri",
          "type": "string"
        },
        {
          "internalType": "bytes32",
          "name": "merkleRoot",
          "type": "bytes32"
        },
        {
          "internalType": "address",
          "name": "RegistryAddress",
          "type": "address"
        }
      ],
      "stateMutability": "nonpayable",
      "type": "constructor"
    },
    {
      "anonymous": false,
      "inputs": [
        {
          "indexed": true,
          "internalType": "address",
          "name": "owner",
          "type": "address"
        },
        {
          "indexed": true,
          "internalType": "address",
          "name": "approved",
          "type": "address"
        },
        {
          "indexed": true,
          "internalType": "uint256",
          "name": "tokenId",
          "type": "uint256"
        }
      ],
      "name": "Approval",
      "type": "event"
    },
    {
      "anonymous": false,
      "inputs": [
        {
          "indexed": true,
          "internalType": "address",
          "name": "owner",
          "type": "address"
        },
        {
          "indexed": true,
          "internalType": "address",
          "name": "operator",
          "type": "address"
        },
        {
          "indexed": false,
          "internalType": "bool",
          "name": "approved",
          "type": "bool"
        }
      ],
      "name": "ApprovalForAll",
      "type": "event"
    },
    {
      "anonymous": false,
      "inputs": [
        {
          "indexed": true,
          "internalType": "address",
          "name": "previousOwner",
          "type": "address"
        },
        {
          "indexed": true,
          "internalType": "address",
          "name": "newOwner",
          "type": "address"
        }
      ],
      "name": "OwnershipTransferred",
      "type": "event"
    },
    {
      "anonymous": false,
      "inputs": [
        {
          "indexed": true,
          "internalType": "address",
          "name": "from",
          "type": "address"
        },
        {
          "indexed": true,
          "internalType": "address",
          "name": "to",
          "type": "address"
        },
        {
          "indexed": true,
          "internalType": "uint256",
          "name": "tokenId",
          "type": "uint256"
        }
      ],
      "name": "Transfer",
      "type": "event"
    },
    {
      "inputs": [],
      "name": "_paused",
      "outputs": [
        {
          "internalType": "bool",
          "name": "",
          "type": "bool"
        }
      ],
      "stateMutability": "view",
      "type": "function"
    },
    {
      "inputs": [],
      "name": "_reveal",
      "outputs": [
        {
          "internalType": "bool",
          "name": "",
          "type": "bool"
        }
      ],
      "stateMutability": "view",
      "type": "function"
    },
    {
      "inputs": [
        {
          "internalType": "address",
          "name": "to",
          "type": "address"
        },
        {
          "internalType": "uint256",
          "name": "tokenId",
          "type": "uint256"
        }
      ],
      "name": "approve",
      "outputs": [],
      "stateMutability": "nonpayable",
      "type": "function"
    },
    {
      "inputs": [
        {
          "internalType": "address",
          "name": "owner",
          "type": "address"
        }
      ],
      "name": "balanceOf",
      "outputs": [
        {
          "internalType": "uint256",
          "name": "",
          "type": "uint256"
        }
      ],
      "stateMutability": "view",
      "type": "function"
    },
    {
      "inputs": [],
      "name": "baseExtension",
      "outputs": [
        {
          "internalType": "string",
          "name": "",
          "type": "string"
        }
      ],
      "stateMutability": "view",
      "type": "function"
    },
    {
      "inputs": [],
      "name": "baseUri",
      "outputs": [
        {
          "internalType": "string",
          "name": "",
          "type": "string"
        }
      ],
      "stateMutability": "view",
      "type": "function"
    },
    {
      "inputs": [
        {
          "internalType": "uint256",
          "name": "tokenId",
          "type": "uint256"
        }
      ],
      "name": "getApproved",
      "outputs": [
        {
          "internalType": "address",
          "name": "",
          "type": "address"
        }
      ],
      "stateMutability": "view",
      "type": "function"
    },
    {
      "inputs": [
        {
          "internalType": "address",
          "name": "owner",
          "type": "address"
        },
        {
          "internalType": "address",
          "name": "operator",
          "type": "address"
        }
      ],
      "name": "isApprovedForAll",
      "outputs": [
        {
          "internalType": "bool",
          "name": "",
          "type": "bool"
        }
      ],
      "stateMutability": "view",
      "type": "function"
    },
    {
      "inputs": [],
      "name": "maxSupply",
      "outputs": [
        {
          "internalType": "uint256",
          "name": "",
          "type": "uint256"
        }
      ],
      "stateMutability": "view",
      "type": "function"
    },
    {
      "inputs": [
        {
          "internalType": "address",
          "name": "account",
          "type": "address"
        },
        {
          "internalType": "uint256",
          "name": "amount",
          "type": "uint256"
        },
        {
          "internalType": "bytes32[]",
          "name": "_proof",
          "type": "bytes32[]"
        }
      ],
      "name": "mint",
      "outputs": [],
      "stateMutability": "payable",
      "type": "function"
    },
    {
      "inputs": [],
      "name": "name",
      "outputs": [
        {
          "internalType": "string",
          "name": "",
          "type": "string"
        }
      ],
      "stateMutability": "view",
      "type": "function"
    },
    {
      "inputs": [],
      "name": "notRevealedUri",
      "outputs": [
        {
          "internalType": "string",
          "name": "",
          "type": "string"
        }
      ],
      "stateMutability": "view",
      "type": "function"
    },
    {
      "inputs": [],
      "name": "owner",
      "outputs": [
        {
          "internalType": "address",
          "name": "",
          "type": "address"
        }
      ],
      "stateMutability": "view",
      "type": "function"
    },
    {
      "inputs": [
        {
          "internalType": "uint256",
          "name": "tokenId",
          "type": "uint256"
        }
      ],
      "name": "ownerOf",
      "outputs": [
        {
          "internalType": "address",
          "name": "",
          "type": "address"
        }
      ],
      "stateMutability": "view",
      "type": "function"
    },
    {
      "inputs": [],
      "name": "preSaleAmountLimit",
      "outputs": [
        {
          "internalType": "uint256",
          "name": "",
          "type": "uint256"
        }
      ],
      "stateMutability": "view",
      "type": "function"
    },
    {
      "inputs": [],
      "name": "preSaleMint",
      "outputs": [
        {
          "internalType": "bool",
          "name": "",
          "type": "bool"
        }
      ],
      "stateMutability": "view",
      "type": "function"
    },
    {
      "inputs": [],
      "name": "price",
      "outputs": [
        {
          "internalType": "uint256",
          "name": "",
          "type": "uint256"
        }
      ],
      "stateMutability": "view",
      "type": "function"
    },
    {
      "inputs": [],
      "name": "publicMint",
      "outputs": [
        {
          "internalType": "bool",
          "name": "",
          "type": "bool"
        }
      ],
      "stateMutability": "view",
      "type": "function"
    },
    {
      "inputs": [
        {
          "internalType": "uint256",
          "name": "amount",
          "type": "uint256"
        }
      ],
      "name": "publicSaleMint",
      "outputs": [],
      "stateMutability": "payable",
      "type": "function"
    },
    {
      "inputs": [],
      "name": "renounceOwnership",
      "outputs": [],
      "stateMutability": "nonpayable",
      "type": "function"
    },
    {
      "inputs": [],
      "name": "reveal",
      "outputs": [],
      "stateMutability": "nonpayable",
      "type": "function"
    },
    {
      "inputs": [],
      "name": "root",
      "outputs": [
        {
          "internalType": "bytes32",
          "name": "",
          "type": "bytes32"
        }
      ],
      "stateMutability": "view",
      "type": "function"
    },
    {
      "inputs": [
        {
          "internalType": "address",
          "name": "from",
          "type": "address"
        },
        {
          "internalType": "address",
          "name": "to",
          "type": "address"
        },
        {
          "internalType": "uint256",
          "name": "tokenId",
          "type": "uint256"
        }
      ],
      "name": "safeTransferFrom",
      "outputs": [],
      "stateMutability": "nonpayable",
      "type": "function"
    },
    {
      "inputs": [
        {
          "internalType": "address",
          "name": "from",
          "type": "address"
        },
        {
          "internalType": "address",
          "name": "to",
          "type": "address"
        },
        {
          "internalType": "uint256",
          "name": "tokenId",
          "type": "uint256"
        },
        {
          "internalType": "bytes",
          "name": "data",
          "type": "bytes"
        }
      ],
      "name": "safeTransferFrom",
      "outputs": [],
      "stateMutability": "nonpayable",
      "type": "function"
    },
    {
      "inputs": [
        {
          "internalType": "address",
          "name": "operator",
          "type": "address"
        },
        {
          "internalType": "bool",
          "name": "approved",
          "type": "bool"
        }
      ],
      "name": "setApprovalForAll",
      "outputs": [],
      "stateMutability": "nonpayable",
      "type": "function"
    },
    {
      "inputs": [
        {
          "internalType": "string",
          "name": "_extension",
          "type": "string"
        }
      ],
      "name": "setBaseExtension",
      "outputs": [],
      "stateMutability": "nonpayable",
      "type": "function"
    },
    {
      "inputs": [
        {
          "internalType": "string",
          "name": "_baseUri",
          "type": "string"
        }
      ],
      "name": "setBaseUri",
      "outputs": [],
      "stateMutability": "nonpayable",
      "type": "function"
    },
    {
      "inputs": [
        {
          "internalType": "bytes32",
          "name": "_root",
          "type": "bytes32"
        }
      ],
      "name": "setMerkleRoot",
      "outputs": [],
      "stateMutability": "nonpayable",
      "type": "function"
    },
    {
      "inputs": [
        {
          "internalType": "string",
          "name": "_uri",
          "type": "string"
        }
      ],
      "name": "setNotRevealedUri",
      "outputs": [],
      "stateMutability": "nonpayable",
      "type": "function"
    },
    {
      "inputs": [
        {
          "internalType": "bytes4",
          "name": "interfaceId",
          "type": "bytes4"
        }
      ],
      "name": "supportsInterface",
      "outputs": [
        {
          "internalType": "bool",
          "name": "",
          "type": "bool"
        }
      ],
      "stateMutability": "view",
      "type": "function"
    },
    {
      "inputs": [],
      "name": "symbol",
      "outputs": [
        {
          "internalType": "string",
          "name": "",
          "type": "string"
        }
      ],
      "stateMutability": "view",
      "type": "function"
    },
    {
      "inputs": [],
      "name": "togglePause",
      "outputs": [],
      "stateMutability": "nonpayable",
      "type": "function"
    },
    {
      "inputs": [],
      "name": "togglePreSaleMint",
      "outputs": [],
      "stateMutability": "nonpayable",
      "type": "function"
    },
    {
      "inputs": [],
      "name": "togglePublicMint",
      "outputs": [],
      "stateMutability": "nonpayable",
      "type": "function"
    },
    {
      "inputs": [
        {
          "internalType": "uint256",
          "name": "tokenId",
          "type": "uint256"
        }
      ],
      "name": "tokenURI",
      "outputs": [
        {
          "internalType": "string",
          "name": "",
          "type": "string"
        }
      ],
      "stateMutability": "view",
      "type": "function"
    },
    {
      "inputs": [
        {
          "internalType": "uint256",
          "name": "tokenId",
          "type": "uint256"
        }
      ],
      "name": "tokenUri",
      "outputs": [
        {
          "internalType": "string",
          "name": "",
          "type": "string"
        }
      ],
      "stateMutability": "view",
      "type": "function"
    },
    {
      "inputs": [],
      "name": "totalSupply",
      "outputs": [
        {
          "internalType": "uint256",
          "name": "",
          "type": "uint256"
        }
      ],
      "stateMutability": "view",
      "type": "function"
    },
    {
      "inputs": [
        {
          "internalType": "address",
          "name": "from",
          "type": "address"
        },
        {
          "internalType": "address",
          "name": "to",
          "type": "address"
        },
        {
          "internalType": "uint256",
          "name": "tokenId",
          "type": "uint256"
        }
      ],
      "name": "transferFrom",
      "outputs": [],
      "stateMutability": "nonpayable",
      "type": "function"
    },
    {
      "inputs": [
        {
          "internalType": "address",
          "name": "newOwner",
          "type": "address"
        }
      ],
      "name": "transferOwnership",
      "outputs": [],
      "stateMutability": "nonpayable",
      "type": "function"
    }
  ],
  "bytecode": "0x6064600a55610100604052604160808181529062002a9860a03980516200002f91600c916020909101906200023d565b5060408051808201909152600580825264173539b7b760d91b60209092019182526200005e91600d916200023d565b50600e805463ffffffff191690556003600f55662386f26fc100006011553480156200008957600080fd5b5060405162002ad938038062002ad9833981016040819052620000ac9162000316565b604080518082018252600881526714105ad3c813919560c21b60208083019182528351808501909452600384526250414b60e81b908401528151919291620000f7916000916200023d565b5080516200010d9060019060208401906200023d565b5050506200012a620001246200016360201b60201c565b62000167565b60016007556008829055600980546001600160a01b0319166001600160a01b0383161790556200015a83620001b9565b5050506200044e565b3390565b600680546001600160a01b038381166001600160a01b0319831681179093556040519116919082907f8be0079c531659141344cd1fd0a4f28419497f9722a3daafe3b4186f6b6457e090600090a35050565b620001c3620001dc565b8051620001d890600b9060208401906200023d565b5050565b6006546001600160a01b031633146200023b5760405162461bcd60e51b815260206004820181905260248201527f4f776e61626c653a2063616c6c6572206973206e6f7420746865206f776e6572604482015260640160405180910390fd5b565b8280546200024b9062000411565b90600052602060002090601f0160209004810192826200026f5760008555620002ba565b82601f106200028a57805160ff1916838001178555620002ba565b82800160010185558215620002ba579182015b82811115620002ba5782518255916020019190600101906200029d565b50620002c8929150620002cc565b5090565b5b80821115620002c85760008155600101620002cd565b634e487b7160e01b600052604160045260246000fd5b80516001600160a01b03811681146200031157600080fd5b919050565b6000806000606084860312156200032c57600080fd5b83516001600160401b03808211156200034457600080fd5b818601915086601f8301126200035957600080fd5b8151818111156200036e576200036e620002e3565b604051601f8201601f19908116603f01168101908382118183101715620003995762000399620002e3565b81604052828152602093508984848701011115620003b657600080fd5b600091505b82821015620003da5784820184015181830185015290830190620003bb565b82821115620003ec5760008484830101525b80975050505080860151935050506200040860408501620002f9565b90509250925092565b600181811c908216806200042657607f821691505b602082108114156200044857634e487b7160e01b600052602260045260246000fd5b50919050565b61263a806200045e6000396000f3fe6080604052600436106102305760003560e01c806395d89b411161012e578063c4ae3168116100ab578063e4eb24661161006f578063e4eb246614610611578063e985e9c514610627578063ebf0c71714610647578063eed718c11461065d578063f2fde38b1461067c57600080fd5b8063c4ae316814610591578063c6682862146105a6578063c87b56dd146105bb578063d5abeb01146105db578063da3ef23f146105f157600080fd5b8063a475b5dd116100f2578063a475b5dd14610509578063ace6cf111461051e578063b3ab66b01461053e578063b88d4fde14610551578063c17ecd121461057157600080fd5b806395d89b41146104895780639abc83201461049e578063a035b1fe146104b3578063a0bcfc7f146104c9578063a22cb465146104e957600080fd5b806326092b83116101bc5780636d444027116101805780636d4440271461040157806370a0823114610416578063715018a6146104365780637cb647591461044b5780638da5cb5b1461046b57600080fd5b806326092b83146103785780634047638d1461039957806342842e0e146103ae5780636352211e146103ce578063641ce140146103ee57600080fd5b8063095ea7b311610203578063095ea7b3146102d95780631675f455146102fb57806316c61ccc1461031b57806318160ddd1461033557806323b872dd1461035857600080fd5b806301ffc9a71461023557806306fdde031461026a578063081812fc1461028c578063081c8c44146102c4575b600080fd5b34801561024157600080fd5b50610255610250366004611f33565b61069c565b60405190151581526020015b60405180910390f35b34801561027657600080fd5b5061027f6106ee565b6040516102619190611fa8565b34801561029857600080fd5b506102ac6102a7366004611fbb565b610780565b6040516001600160a01b039091168152602001610261565b3480156102d057600080fd5b5061027f6107a7565b3480156102e557600080fd5b506102f96102f4366004611fe9565b610835565b005b34801561030757600080fd5b5061027f610316366004611fbb565b610950565b34801561032757600080fd5b50600e546102559060ff1681565b34801561034157600080fd5b5061034a610ade565b604051908152602001610261565b34801561036457600080fd5b506102f9610373366004612015565b610aee565b34801561038457600080fd5b50600e54610255906301000000900460ff1681565b3480156103a557600080fd5b506102f9610b1f565b3480156103ba57600080fd5b506102f96103c9366004612015565b610b48565b3480156103da57600080fd5b506102ac6103e9366004611fbb565b610b63565b6102f96103fc366004612056565b610bc3565b34801561040d57600080fd5b506102f9610f0f565b34801561042257600080fd5b5061034a6104313660046120e2565b610f36565b34801561044257600080fd5b506102f9610fbc565b34801561045757600080fd5b506102f9610466366004611fbb565b610fd0565b34801561047757600080fd5b506006546001600160a01b03166102ac565b34801561049557600080fd5b5061027f610fdd565b3480156104aa57600080fd5b5061027f610fec565b3480156104bf57600080fd5b5061034a60115481565b3480156104d557600080fd5b506102f96104e436600461218b565b610ff9565b3480156104f557600080fd5b506102f96105043660046121d4565b611018565b34801561051557600080fd5b506102f9611023565b34801561052a57600080fd5b50600e546102559062010000900460ff1681565b6102f961054c366004611fbb565b61103c565b34801561055d57600080fd5b506102f961056c366004612212565b6112f7565b34801561057d57600080fd5b506102f961058c36600461218b565b61132f565b34801561059d57600080fd5b506102f961134a565b3480156105b257600080fd5b5061027f611366565b3480156105c757600080fd5b5061027f6105d6366004611fbb565b611373565b3480156105e757600080fd5b5061034a600a5481565b3480156105fd57600080fd5b506102f961060c36600461218b565b6113d0565b34801561061d57600080fd5b5061034a600f5481565b34801561063357600080fd5b50610255610642366004612292565b6113eb565b34801561065357600080fd5b5061034a60085481565b34801561066957600080fd5b50600e5461025590610100900460ff1681565b34801561068857600080fd5b506102f96106973660046120e2565b6114bb565b60006001600160e01b031982166380ac58cd60e01b14806106cd57506001600160e01b03198216635b5e139f60e01b145b806106e857506301ffc9a760e01b6001600160e01b03198316145b92915050565b6060600080546106fd906122c0565b80601f0160208091040260200160405190810160405280929190818152602001828054610729906122c0565b80156107765780601f1061074b57610100808354040283529160200191610776565b820191906000526020600020905b81548152906001019060200180831161075957829003601f168201915b5050505050905090565b600061078b82611534565b506000908152600460205260409020546001600160a01b031690565b600c80546107b4906122c0565b80601f01602080910402602001604051908101604052809291908181526020018280546107e0906122c0565b801561082d5780601f106108025761010080835404028352916020019161082d565b820191906000526020600020905b81548152906001019060200180831161081057829003601f168201915b505050505081565b600061084082610b63565b9050806001600160a01b0316836001600160a01b031614156108b35760405162461bcd60e51b815260206004820152602160248201527f4552433732313a20617070726f76616c20746f2063757272656e74206f776e656044820152603960f91b60648201526084015b60405180910390fd5b336001600160a01b03821614806108cf57506108cf81336113eb565b6109415760405162461bcd60e51b815260206004820152603e60248201527f4552433732313a20617070726f76652063616c6c6572206973206e6f7420746f60448201527f6b656e206f776e6572206e6f7220617070726f76656420666f7220616c6c000060648201526084016108aa565b61094b8383611593565b505050565b6000818152600260205260409020546060906001600160a01b03166109d15760405162461bcd60e51b815260206004820152603160248201527f455243373231206d657461646174613a2055524920717565727920666f72206e60448201527037b732bc34b9ba30b731b2903a37b5b2b760791b60648201526084016108aa565b600e54610100900460ff16610a7257600c80546109ed906122c0565b80601f0160208091040260200160405190810160405280929190818152602001828054610a19906122c0565b8015610a665780601f10610a3b57610100808354040283529160200191610a66565b820191906000526020600020905b815481529060010190602001808311610a4957829003601f168201915b50505050509050919050565b6000610a8960408051602081019091526000815290565b90506000815111610aa95760405180602001604052806000815250610ad7565b80610ab384611601565b600d604051602001610ac7939291906122fb565b6040516020818303038152906040525b9392505050565b6000610ae960125490565b905090565b610af833826116ff565b610b145760405162461bcd60e51b81526004016108aa906123bf565b61094b83838361175d565b610b276118f9565b600e805463ff00000019811663010000009182900460ff1615909102179055565b61094b838383604051806020016040528060008152506112f7565b6000818152600260205260408120546001600160a01b0316806106e85760405162461bcd60e51b8152602060048201526018602482015277115490cdcc8c4e881a5b9d985b1a59081d1bdad95b88125160421b60448201526064016108aa565b333214610be25760405162461bcd60e51b81526004016108aa9061240d565b8181610c59828280806020026020016040519081016040528093929190818152602001838360200280828437600092019190915250506008546040516bffffffffffffffffffffffff193360601b166020820152909250603401905060405160208183030381529060405280519060200120611953565b610c755760405162461bcd60e51b81526004016108aa9061240d565b336001600160a01b03871614610cbb5760405162461bcd60e51b815260206004820152600b60248201526a139bdd08185b1b1bddd95960aa1b60448201526064016108aa565b600e5460ff1615610d025760405162461bcd60e51b8152602060048201526011602482015270135a5b9d1a5b99c81a5cc814185d5cd959607a1b60448201526064016108aa565b600e5462010000900460ff16610d555760405162461bcd60e51b81526020600482015260186024820152775072652053616c65204d696e74696e6720636c6f7365642160401b60448201526064016108aa565b600f54851115610da25760405162461bcd60e51b815260206004820152601860248201527743616e206e6f74206d696e7420656e6f756768204e66747360401b60448201526064016108aa565b6000610dad60125490565b600a54909150610dbd878361244f565b1115610e005760405162461bcd60e51b81526020600482015260126024820152714d617820537570706c79206578636365642160701b60448201526064016108aa565b600f54336000908152601060205260409020541015610e615760405162461bcd60e51b815260206004820152601e60248201527f63616e206e6f74206d696e74206d6f7265207468616e2033206e66747321000060448201526064016108aa565b610e6d86601154611969565b3414610ebb5760405162461bcd60e51b815260206004820152601a60248201527f796f7520646f6e74206861766520656e6f75676820657468657200000000000060448201526064016108aa565b3360009081526010602052604081208054889290610eda90849061244f565b90915550600090505b86811015610f0557610ef3611996565b80610efd81612467565b915050610ee3565b5050505050505050565b610f176118f9565b600e805462ff0000198116620100009182900460ff1615909102179055565b60006001600160a01b038216610fa05760405162461bcd60e51b815260206004820152602960248201527f4552433732313a2061646472657373207a65726f206973206e6f7420612076616044820152683634b21037bbb732b960b91b60648201526084016108aa565b506001600160a01b031660009081526003602052604090205490565b610fc46118f9565b610fce6000611a1b565b565b610fd86118f9565b600855565b6060600180546106fd906122c0565b600b80546107b4906122c0565b6110016118f9565b805161101490600b906020840190611e84565b5050565b611014338383611a6d565b61102b6118f9565b600e805461ff001916610100179055565b33321461105b5760405162461bcd60e51b81526004016108aa9061240d565b600e546301000000900460ff166110af5760405162461bcd60e51b81526020600482015260186024820152775072652053616c65204d696e74696e6720636c6f7365642160401b60448201526064016108aa565b600e5460ff16156110f65760405162461bcd60e51b8152602060048201526011602482015270135a5b9d1a5b99c81a5cc814185d5cd959607a1b60448201526064016108aa565b600081116111465760405162461bcd60e51b815260206004820152601f60248201527f416d6f756e742073686f756c642062652067726561746572207468616e20300060448201526064016108aa565b600f548111156111935760405162461bcd60e51b815260206004820152601860248201527743616e206e6f74206d696e7420656e6f756768204e66747360401b60448201526064016108aa565b600061119e60125490565b600a549091506111ae838361244f565b11156111f15760405162461bcd60e51b81526020600482015260126024820152714d617820537570706c79206578636365642160701b60448201526064016108aa565b600f543360009081526010602052604090205410156112525760405162461bcd60e51b815260206004820152601e60248201527f63616e206e6f74206d696e74206d6f7265207468616e2033206e66747321000060448201526064016108aa565b61125e82601154611969565b3410156112ad5760405162461bcd60e51b815260206004820152601a60248201527f796f7520646f6e74206861766520656e6f75676820657468657200000000000060448201526064016108aa565b33600090815260106020526040812080548492906112cc90849061244f565b90915550600090505b8281101561094b576112e5611996565b806112ef81612467565b9150506112d5565b61130133836116ff565b61131d5760405162461bcd60e51b81526004016108aa906123bf565b61132984848484611b3c565b50505050565b6113376118f9565b805161101490600c906020840190611e84565b6113526118f9565b600e805460ff19811660ff90911615179055565b600d80546107b4906122c0565b606061137e82611534565b600061139560408051602081019091526000815290565b905060008151116113b55760405180602001604052806000815250610ad7565b806113bf84611601565b604051602001610ac7929190612482565b6113d86118f9565b805161101490600d906020840190611e84565b60095460405163c455279160e01b81526001600160a01b03848116600483015260009281169190841690829063c45527919060240160206040518083038186803b15801561143857600080fd5b505afa15801561144c573d6000803e3d6000fd5b505050506040513d601f19601f8201168201806040525081019061147091906124b1565b6001600160a01b031614156114895760019150506106e8565b6001600160a01b0380851660009081526005602090815260408083209387168352929052205460ff165b949350505050565b6114c36118f9565b6001600160a01b0381166115285760405162461bcd60e51b815260206004820152602660248201527f4f776e61626c653a206e6577206f776e657220697320746865207a65726f206160448201526564647265737360d01b60648201526084016108aa565b61153181611a1b565b50565b6000818152600260205260409020546001600160a01b03166115315760405162461bcd60e51b8152602060048201526018602482015277115490cdcc8c4e881a5b9d985b1a59081d1bdad95b88125160421b60448201526064016108aa565b600081815260046020526040902080546001600160a01b0319166001600160a01b03841690811790915581906115c882610b63565b6001600160a01b03167f8c5be1e5ebec7d5bd14f71427d1e84f3dd0314c0f7b2291e5b200ac8c7c3b92560405160405180910390a45050565b6060816116255750506040805180820190915260018152600360fc1b602082015290565b8160005b811561164f578061163981612467565b91506116489050600a836124e4565b9150611629565b60008167ffffffffffffffff81111561166a5761166a6120ff565b6040519080825280601f01601f191660200182016040528015611694576020820181803683370190505b5090505b84156114b3576116a96001836124f8565b91506116b6600a8661250f565b6116c190603061244f565b60f81b8183815181106116d6576116d6612523565b60200101906001600160f81b031916908160001a9053506116f8600a866124e4565b9450611698565b60008061170b83610b63565b9050806001600160a01b0316846001600160a01b03161480611732575061173281856113eb565b806114b35750836001600160a01b031661174b84610780565b6001600160a01b031614949350505050565b826001600160a01b031661177082610b63565b6001600160a01b0316146117d45760405162461bcd60e51b815260206004820152602560248201527f4552433732313a207472616e736665722066726f6d20696e636f72726563742060448201526437bbb732b960d91b60648201526084016108aa565b6001600160a01b0382166118365760405162461bcd60e51b8152602060048201526024808201527f4552433732313a207472616e7366657220746f20746865207a65726f206164646044820152637265737360e01b60648201526084016108aa565b611841600082611593565b6001600160a01b038316600090815260036020526040812080546001929061186a9084906124f8565b90915550506001600160a01b038216600090815260036020526040812080546001929061189890849061244f565b909155505060008181526002602052604080822080546001600160a01b0319166001600160a01b0386811691821790925591518493918716917fddf252ad1be2c89b69c2b068fc378daa952ba7f163c4a11628f55a4df523b3ef91a4505050565b6006546001600160a01b03163314610fce5760405162461bcd60e51b815260206004820181905260248201527f4f776e61626c653a2063616c6c6572206973206e6f7420746865206f776e657260448201526064016108aa565b6000826119608584611b6f565b14949350505050565b600081158061198d5750828261197f8183612539565b925061198b90836124e4565b145b6106e857600080fd5b600260075414156119e95760405162461bcd60e51b815260206004820152601f60248201527f5265656e7472616e637947756172643a207265656e7472616e742063616c6c0060448201526064016108aa565b60026007556119fc601280546001019055565b6000611a0760125490565b9050611a133382611bbc565b506001600755565b600680546001600160a01b038381166001600160a01b0319831681179093556040519116919082907f8be0079c531659141344cd1fd0a4f28419497f9722a3daafe3b4186f6b6457e090600090a35050565b816001600160a01b0316836001600160a01b03161415611acf5760405162461bcd60e51b815260206004820152601960248201527f4552433732313a20617070726f766520746f2063616c6c65720000000000000060448201526064016108aa565b6001600160a01b03838116600081815260056020908152604080832094871680845294825291829020805460ff191686151590811790915591519182527f17307eab39ab6107e8899845ad3d59bd9653f200f220920489ca2b5937696c31910160405180910390a3505050565b611b4784848461175d565b611b5384848484611bd6565b6113295760405162461bcd60e51b81526004016108aa90612558565b600081815b8451811015611bb457611ba082868381518110611b9357611b93612523565b6020026020010151611ce3565b915080611bac81612467565b915050611b74565b509392505050565b611014828260405180602001604052806000815250611d0f565b60006001600160a01b0384163b15611cd857604051630a85bd0160e11b81526001600160a01b0385169063150b7a0290611c1a9033908990889088906004016125aa565b602060405180830381600087803b158015611c3457600080fd5b505af1925050508015611c64575060408051601f3d908101601f19168201909252611c61918101906125e7565b60015b611cbe573d808015611c92576040519150601f19603f3d011682016040523d82523d6000602084013e611c97565b606091505b508051611cb65760405162461bcd60e51b81526004016108aa90612558565b805181602001fd5b6001600160e01b031916630a85bd0160e11b1490506114b3565b506001949350505050565b6000818310611cff576000828152602084905260409020610ad7565b5060009182526020526040902090565b611d198383611d42565b611d266000848484611bd6565b61094b5760405162461bcd60e51b81526004016108aa90612558565b6001600160a01b038216611d985760405162461bcd60e51b815260206004820181905260248201527f4552433732313a206d696e7420746f20746865207a65726f206164647265737360448201526064016108aa565b6000818152600260205260409020546001600160a01b031615611dfd5760405162461bcd60e51b815260206004820152601c60248201527f4552433732313a20746f6b656e20616c7265616479206d696e7465640000000060448201526064016108aa565b6001600160a01b0382166000908152600360205260408120805460019290611e2690849061244f565b909155505060008181526002602052604080822080546001600160a01b0319166001600160a01b03861690811790915590518392907fddf252ad1be2c89b69c2b068fc378daa952ba7f163c4a11628f55a4df523b3ef908290a45050565b828054611e90906122c0565b90600052602060002090601f016020900481019282611eb25760008555611ef8565b82601f10611ecb57805160ff1916838001178555611ef8565b82800160010185558215611ef8579182015b82811115611ef8578251825591602001919060010190611edd565b50611f04929150611f08565b5090565b5b80821115611f045760008155600101611f09565b6001600160e01b03198116811461153157600080fd5b600060208284031215611f4557600080fd5b8135610ad781611f1d565b60005b83811015611f6b578181015183820152602001611f53565b838111156113295750506000910152565b60008151808452611f94816020860160208601611f50565b601f01601f19169290920160200192915050565b602081526000610ad76020830184611f7c565b600060208284031215611fcd57600080fd5b5035919050565b6001600160a01b038116811461153157600080fd5b60008060408385031215611ffc57600080fd5b823561200781611fd4565b946020939093013593505050565b60008060006060848603121561202a57600080fd5b833561203581611fd4565b9250602084013561204581611fd4565b929592945050506040919091013590565b6000806000806060858703121561206c57600080fd5b843561207781611fd4565b935060208501359250604085013567ffffffffffffffff8082111561209b57600080fd5b818701915087601f8301126120af57600080fd5b8135818111156120be57600080fd5b8860208260051b85010111156120d357600080fd5b95989497505060200194505050565b6000602082840312156120f457600080fd5b8135610ad781611fd4565b634e487b7160e01b600052604160045260246000fd5b600067ffffffffffffffff80841115612130576121306120ff565b604051601f8501601f19908116603f01168101908282118183101715612158576121586120ff565b8160405280935085815286868601111561217157600080fd5b858560208301376000602087830101525050509392505050565b60006020828403121561219d57600080fd5b813567ffffffffffffffff8111156121b457600080fd5b8201601f810184136121c557600080fd5b6114b384823560208401612115565b600080604083850312156121e757600080fd5b82356121f281611fd4565b91506020830135801515811461220757600080fd5b809150509250929050565b6000806000806080858703121561222857600080fd5b843561223381611fd4565b9350602085013561224381611fd4565b925060408501359150606085013567ffffffffffffffff81111561226657600080fd5b8501601f8101871361227757600080fd5b61228687823560208401612115565b91505092959194509250565b600080604083850312156122a557600080fd5b82356122b081611fd4565b9150602083013561220781611fd4565b600181811c908216806122d457607f821691505b602082108114156122f557634e487b7160e01b600052602260045260246000fd5b50919050565b60008451602061230e8285838a01611f50565b8551918401916123218184848a01611f50565b8554920191600090600181811c908083168061233e57607f831692505b85831081141561235c57634e487b7160e01b85526022600452602485fd5b8080156123705760018114612381576123ae565b60ff198516885283880195506123ae565b60008b81526020902060005b858110156123a65781548a82015290840190880161238d565b505083880195505b50939b9a5050505050505050505050565b6020808252602e908201527f4552433732313a2063616c6c6572206973206e6f7420746f6b656e206f776e6560408201526d1c881b9bdc88185c1c1c9bdd995960921b606082015260800190565b6020808252601290820152712737ba1030b63637bbb2b21037b934b3b4b760711b604082015260600190565b634e487b7160e01b600052601160045260246000fd5b6000821982111561246257612462612439565b500190565b600060001982141561247b5761247b612439565b5060010190565b60008351612494818460208801611f50565b8351908301906124a8818360208801611f50565b01949350505050565b6000602082840312156124c357600080fd5b8151610ad781611fd4565b634e487b7160e01b600052601260045260246000fd5b6000826124f3576124f36124ce565b500490565b60008282101561250a5761250a612439565b500390565b60008261251e5761251e6124ce565b500690565b634e487b7160e01b600052603260045260246000fd5b600081600019048311821515161561255357612553612439565b500290565b60208082526032908201527f4552433732313a207472616e7366657220746f206e6f6e20455243373231526560408201527131b2b4bb32b91034b6b83632b6b2b73a32b960711b606082015260800190565b6001600160a01b03858116825284166020820152604081018390526080606082018190526000906125dd90830184611f7c565b9695505050505050565b6000602082840312156125f957600080fd5b8151610ad781611f1d56fea2646970667358221220f39a8cd14bf9c492da1759a83ddeff7e41cc75c87bc81f40a47b50f9bd328ecc64736f6c63430008090033697066733a2f2f516d5a64466b7172327a396562466a554c336664486a6859525436626f664637584b4356765238785a39767932312f68696464656e2e6a736f6e",
  "linkReferences": {},
  "deployedLinkReferences": {}
}